:100000000C9414090C943C090C943C090C943C0984
:100010000C943C090C943C090C943C090C943C094C
:100020000C943C090C943C090C943C090C943C093C
:100030000C943C090C943C090C943C090C943C092C
:100040000C943C090C943C090C943C090C943C091C
:100050000C943C090C943C090C943C090C94091335
:100060000C943C090C943C090C943C090C943C09FC
:100070000C943C090C943C090C943C090C943C09EC
:100080000C9401140C943C090C943C090C943C090C
:100090000C943C090C943C090C943C090C943C09CC
:1000A0000C943C090C943C090C943C09BC254B264F
:1000B0006D2F58279B287729682F5427D5F08D144A
:1000C000A1C881CFD9F1AF20000B0BF8FCFE03DBF8
:1000D000DBDB27FEFCF8000103060606060703012A
:1000E000007E436F6E6669726D007E4162616E6470
:1000F0006F6E7E67616D650A7E616E647E72657487
:1001000075726E3F0020596F757E63616E7E6E6FF3
:10011000740A20706C61797E617E626F6E650A2060
:10012000616E647E706173732E007E497E63616EC2
:1001300027747E676F2E7E490A7E77696C6C7E68B5
:100140006176657E746F0A7E706173732E007E49DE
:100150007E63616E27747E676F2E7E490A7E7769A3
:100160006C6C7E647261777E616E0A7E65787472F3
:10017000617E626F6E652E00506C61796572200041
:100180003E0B01FFFFFF21233F3E1C03FFFFFF014A
:100190000080400080E07E4F7FFCF0C0010387FFBD
:1001A000FFFC0703010001FFFFFF113983C201FFBC
:1001B000FFFF117FFFEEC080C49E3F3FF9FBF3625B
:1001C00001030505050604000001030505050505F5
:1001D00006050305050605030505070403050505D2
:1001E00007000004070505050503010605050503CD
:1001F00001060505030204050505030100000503CA
:100200000103070301050304060706043200310059
:100210004E756D6265727E6F667E706C6179657217
:10022000737E3F00210BFE12120C00F00808100034
:1002300070A8A8300090A8A8480090A8A84800007E
:100240007CFE87DB87FE7C000000000000000000D1
:10025000000000000000000000000000000000009E
:10026000000102050505020105050E191D1F0E5BA3
:100270002F0000000000000000000000000000004F
:10028000000000000000000000000000000000006E
:100290000000F80402E191D1F1E101010101010145
:1002A00001E191D1F1E10204F8D0A0C0000000000A
:1002B000000000000000000000000000000000003E
:1002C000000000000000000000000000000000002E
:1002D00000000000000000E01008844444C48404CE
:1002E000040404040404844444C4840810FF00008B
:1002F0000001010100003864747C38000001010134
:10030000000000EF170B874444C484040404040471
:100310000404844444C4840810E0408000000000C9
:1003200000000000000000C0C0C0C0C0C0C0C0C00D
:1003300080800F00000386C7C7C3C0C080000000D4
:10034000C0C3C6C7C70300008FC0C0CEC90DCFCE83
:10035000C0C0C0C000C0C0CEC98D0F0E00C0CFC08D
:10036000C003060787C3C0C0C0C080000003C6C763
:10037000C7C3C0C0CFCFCE0F000080C0C0C0C0C0B8
:10038000C08080FFFFFFFF8080C1FFFFFF3E003E77
:100390007FFFFFE08083FFFF7F3E0080FFFF0F7F36
:1003A000FEF81FFFFFFFFF800080FFFFFFFF8000C0
:1003B00080FFFF8F0F1F3E7CF8FFFF00003E7FFF96
:1003C000FFE08083FFFF7FBE0080FFFFFFFF8CBE4A
:1003D000BEC1E000E7CF9F9FBEFCFDFB730103059C
:1003E0000909090909090A040201000000010305BD
:1003F00009090A04020081C345CA8401C2C509096A
:1004000009C9C90A05090909C9C94A4D01C9C90A61
:10041000CDC204C8C907C0C142440A89C949C985B7
:100420000201040A09090909090909050302040A64
:100430000909090503010000000000000000000098
:1004400000000000000000000000000000000000AC
:10045000007F7F107F7F007F7F4040007F7F404094
:100460000000007F7F0404007F7F001F7F607F1FEC
:10047000007F7F4444003377447D3D00000000004E
:10048000000000000000000000000000000000006C
:1004900000000021080F0F08080006090B06000ED7
:1004A00003030E000F090F06000F0F000F02030FCA
:1004B000000E0F090D000E10BEBDBEBDBEBDBEBDFF
:1004C000BEBDBEBDBE000004000400040004000464
:1004D000000400004E080F0D0702000F050F0A0070
:1004E0000F0D0900020B0D00020B0D0000000000B3
:1004F0000F0D0702000F0F0808000E03030E000384
:100500000E0E0300000006090B06000F02030F0089
:10051000000000010F0F010E03030E000F0D070274
:10052000000F0D090E10A7C7A7C7A7C7A7C7A7C762
:10053000A7C7A70007070707070707070707070752
:10054000070024080E1F1F1F0E00000000000000FF
:10055000000000001F0E040000000000000000006A
:10056000040E1F00040E1F000911FEFFFFFFFFFF16
:10057000FFFFFEFFFFFEFEFEFEFEFFFF000101018A
:1005800001010101000911FE01010101010101FE4A
:10059000FF00010101010100FF0001010101010152
:1005A000010005050000000000000004000001003B
:1005B00000001001000400101100000011110004DF
:1005C000001115000000151109FEFFFFFFFFFFFFDE
:1005D000FF01FFFFFFFFFFFFFFFE0001010101011F
:1005E0000101010101010101010100050740404035
:1005F00040404040444040414040405041404440E1
:100600005051404040515140444051554040405568
:100610001109FE010101010101017D010101010139
:100620000101FE00010101010101010101010101BE
:100630000101010047726561747E776F726B000A79
:1006400020204920776F6E202100596F757E6861E8
:1006500076657E757365640A75707E616C6C7E6FFD
:10066000667E796F75720A626F6E65732100596FCD
:10067000757E686176657E757365640A75707E61E6
:100680006C6C7E6F667E796F75720A626F6E6573D1
:1006900021007E497E686176657E757365640A7E99
:1006A00075707E616C6C7E6F667E6D790A7E626F9E
:1006B0006E6573210004083E09093E3F25251A1E78
:1006C0002121123F21211E3F2525213F0505011E25
:1006D00021293A3F04043F213F21001021211F3FDF
:1006E000040A313F2020203F02023F3F02043F1E08
:1006F00021211E3F0909061E21112E3F090936221C
:10070000252519013F01011F20201F0F10201F3F29
:1007100010103F3B04043B03043807312D23211004
:100720002A2A3C3F2424181C2222141824243F1C6B
:100730002A2A2C043E05014C52523E3F0404382420
:100740003D20004040443D3F081422213F20003E10
:1007500004043E3E04023C1C22221C7E22221C1C5D
:1007600022227E3E040204242A2A12021F22201E74
:1007700020201E0E10201E3E10103E360808364E59
:1007800050503E322A26221E29251E223F200032AA
:100790002929261221251A0C0A3F08172525191E7A
:1007A000252518013905031A25251A0629291E00B1
:1007B0002F000000200000022905020004040000B0
:1007C0000201000040200009061A202020202020DD
:1007D000201A06090001000101FE000100010100CC
:1007E0000609FE01010001000001010001000906E7
:1007F0001601010101010101164618F804FAFDFD78
:10080000FDFDFDFDFDFDFDFDFDFDFDFDFDFDFDFD18
:10081000FDFDFDFDFDFDFDFDFDFDFDFDFDFDFDFD08
:10082000FDFDFDFDFDFDFDFDFDFDFDFDFDFDFDFDF8
:10083000FDFDFDFDFDFDFDFDFDFDFDFDFDFDFA04E4
:10084000F8FF00FFFFFFFFFFFFFFFFFFFFFFFFFFBE
:10085000FFFFFFFFFFFFFFFFFFFFFFFFFFFFFFFFA8
:10086000FFFFFFFFFFFFFFFFFFFFFFFFFFFFFFFF98
:10087000FFFFFFFFFFFFFFFFFFFFFFFFFFFFFFFF88
:10088000FFFFFFFFFF00FFFF00FFFFFFFFFFFFFF76
:10089000FFFFFFFFFFFFFFFFFFFFFFFFFFFFFFFF68
:1008A000FFFFFFFFFFFFFFFFFFFFFFFFFFFFFFFF58
:1008B000FFFFFFFFFFFFFFFFFFFFFFFFFFFFFFFF48
:1008C000FFFFFFFFFFFFFFFFFFFFFF00FFFF00FF36
:1008D000FFFFFFFFFFFFFFFFFFFFFFFFFFFFFFFF28
:1008E000FFFFFFFFFFFFFFFFFFFFFFFFFFFFFFFF18
:1008F000FFFFFFFFFFFFFFFFFFFFFFFFFFFFFFFF08
:10090000FFFFFFFFFFFFFFFFFFFFFFFFFFFFFFFFF7
:10091000FF00FF3F40BF7F7F7F7F7F7F7F7F7F7FA5
:100920007F7F7F7F7F7F7F7F7F7F7F7F7F7F7F7FD7
:100930007F7F7F7F7F7F7F7F7F7F7F7F7F7F7F7FC7
:100940007F7F7F3FDFDFDFDFDF3F7F7F7F7F7F7F57
:100950007F7F7F7F7F7FBF403F000000010101015B
:100960000101010101010101010101010101010177
:100970000101010101010101010101010101010167
:10098000010101010101010103040B0B0B0B0B041D
:100990003349B5B5493101010101010100000049A8
:1009A0002077696C6C20706C61790A74686520200E
:1009B00020207E626F6E652E001A2000000000006D
:1009C0000FF90949894989498949894909F90F0074
:1009D0000000000000000000000000070C1932E5D4
:1009E000CA15CAE532190C0700000000000000001B
:1009F0000000000000F80C060301000000010306DF
:100A00000CF80000000000000000000000003C277F
:100A10002424242424242424242424273C000000E7
:100A200000000000000000000FF909098909890988
:100A30008909890909F90F00000000000000000081
:100A4000000000070C1932E5CA55CAE532190C0737
:100A500000000000000000000000000000F80C068C
:100A600003010055000103060CF80000000000001F
:100A70000000000000003C272424242424242424F3
:100A8000242424273C000000000000000000000097
:100A90000FF90909090909090909090909F90F00E3
:100AA0000000000000000000000000070C1932E503
:100AB000CA95CAE532190C070000000000000000CA
:100AC0000000000000F80C06030100AA0001030664
:100AD0000CF80000000000000000000000003C27AF
:100AE0002424242624262426242424273C00000011
:100AF00000000000000000000FF9090909090909B8
:100B00000909090909F90F000000000000000000B0
:100B1000000000070C1832E4CA54CAE432180C076B
:100B200000000000000000000000000000F80C06BB
:100B300003810095008103060CF80000000000000E
:100B40000000000000003C27242625262526252617
:100B5000252624273C0000000000000000000000C3
:100B60000FF90909090909090909090909F90F0012
:100B70000000000000000000000000070C1830E436
:100B8000C894C8E430180C07000000000000000002
:100B90000000000000F80C060381408A4081030633
:100BA0000CF80000000000000000000000003C27DE
:100BB0002426252625262526252624273C00000038
:100BC00000000000000000000FF9090909090909E7
:100BD0000909090909F90F000000000000000000E0
:100BE000000000070C1830E0C850C8E030180C07AF
:100BF00000000000000000000000000000F80C866B
:100C000043814085408143860CF8000000000000CD
:100C10000000000000003C27242625262526252646
:100C2000252624273C0000000000000000000000F2
:100C30000FF90909090909090909090909F90F0041
:100C40000000000000000000000000070C1830E069
:100C5000C090C0E030180C07000000000000000049
:100C60000000000000F80C8643A140AA40A1438682
:100C70000CF80000000000000000000000003C270D
:100C80002426252625262526252624273C00000067
:100C900000000000000000000FF909090909090916
:100CA0000909090909F90F0000000000000000000F
:100CB000000000070C1830E0C040C0E030180C07FE
:100CC00000000000000000000000000000F80C869A
:100CD00043A150A150A143860CF800000000000081
:100CE0000000000000003C27242625262526252676
:100CF000252624273C000000000000000000000022
:100D00000FF90909090909090909090909F90F0070
:100D10000000000000000000000000070C1830E098
:100D2000C000C0E030180C07000000000000000008
:100D30000000000000F80C8643A150A850A1438693
:100D40000CF80000000000000000000000003C273C
:100D50002426252625262526252624273C00000096
:100D6000000000000000008040A050281C284080A7
:100D700000000000000000000000000000081C0A45
:100D8000152241808080808000003F6040404040CC
:100D900080000000000000000000000000000000D3
:100DA00000013F40942854289448A4512A140E046A
:100DB000000000000000000000000000000000052E
:100DC0000E0502010000000000000080808080000D
:100DD0000000000000000000000000000000000013
:100DE0000080808080FF0000FF0101010103060CEC
:100DF00018B0B0180C8643A151A151FF0000FF3F6D
:100E000020203F10101010180C0603010103060CDF
:100E100019121512153F20203F00000000000000AD
:100E200000000000000000000000000000000000C2
:100E30000000000000000000000000000000008032
:100E400040281C2850A04080000000000000000046
:100E500000008040404040603F002894A894A8943F
:100E60004922150A1C0800040E142A51A0408000D3
:100E7000000080403F010000000000000000000072
:100E8000000000000000000102050E050000000047
:100E9000000000000000000000000004041C2222EA
:100EA0001C00243E2024322A2414222A140C0A3E38
:100EB000082E2A2A121C2A2A1002320A06142A2A6A
:100EC00014242A120C0509FF8244A85001000100D5
:100ED00000FFFE7CB8500100010000050950A84445
:100EE00082FF000001000150B87CFEFF00000100FD
:100EF000011109FE01552955295529012955295561
:100F0000295501FE00010101010101010101010159
:100F100001010101000911FE01FDFDFDFDFD01FEC4
:100F2000FF007E7E7E7E7E00FF0001010101010147
:100F300001000911FE0155A955A95501FEFF002A1E
:100F4000542A542A00FF000101010101010100118E
:100F500009AA0154295429542900552855285528EF
:100F600001AA0001000100010001000100010001CF
:100F70000001001109AA01000100010001000100A7
:100F80000100010001AA00010001000100010001AF
:100F9000000100010001000911AA0154A954A9543B
:100FA00001AAAA002A542A542A00AA00010001001A
:100FB000010001000911AA01000100010001AAAA13
:100FC00000000000000000AA000100010001000173
:100FD000004974737E796F75727E7475726E0059F4
:100FE0006F757E63616E7E73746172740A74686576
:100FF0007E6E65777E67616D652C001A40FF00800C
:101000008E93979F8E80808080808080808080807B
:10101000800000FFAA55FFFF00007098B8F870002C
:101020000000000000007098B8F8700000FFAA559A
:10103000FFFF00000080808000001C262E3E1C0068
:1010400000808080000000FFAA55FF1F2040878994
:101050008B8F878080808080808087898B8F87407E
:10106000201F2A4583FC0201384C5C7C38000000BC
:1010700000000000384C5C7C380102FCAA55FFFFE0
:10108000000080C0C0C0800000000000000080C0E0
:10109000C0C0800000FFAA55FFFF00404344454701
:1010A000434040404040404043444547430000FFE8
:1010B000AA55FFFF000000000000000000808080B3
:1010C00000001C262E3E1C0000FFAA55FF1A40FF00
:1010D00000000E13171F0E000000000000000E138A
:1010E000171F0E0000FFAA55FFFF000101010101BB
:1010F00001010101010101017199B9F9710000FFBC
:10110000AA55FFFF00000080808000001C262E3EB4
:101110001C0000000000000000FFAA55FF1F204037
:1011200087898B8F8780808080808080808080808E
:101130008040201F2A4583FC0201384C5C7C38002B
:10114000000000000000384C5C7C380102FCAA550D
:10115000FFFF000080C0C0C080000E13171F0E00EC
:1011600080C0C0C0800000FFAA55FFFF00202324DC
:10117000252723202020202020202324252723006A
:1011800000FFAA55FFFF00001C262E3E1C00008019
:10119000808000001C262E3E1C0000FFAA55FF4246
:1011A0000B030F3FFFF87B1F7FFFF0790FC301FF99
:1011B000FFFF010003FFFF1E3C78F9FFFF0103FF63
:1011C000FF1E3C78F9FFFF010001FFFFFF1139838B
:1011D000C201FFFFFF117FFFEEC080C49E3F3FF9B9
:1011E000FBF3620000000103040300010304030099
:1011F00001030505070401030505060400030506B0
:10120000050505070002040507000205050505059B
:10121000050306050505030504050301020405058C
:10122000050301000000123311241FBECFEFDAE0E6
:10123000DEBFCDBF12E0A0E0B1E0E2EFFDE602C00C
:1012400005900D92A231B107D9F727E0A2E1B2E0F3
:1012500001C01D92A334B207E1F719E0C4E1D9E05F
:1012600004C02197FE010E94F534C331D107C9F7AC
:101270000E9459240C94F7360C940000089580E0E5
:1012800090E00895E62FF0E0EE59FE4F9081292F6F
:101290002F7092959F70921302C0982F01C090E01A
:1012A000890F0895CF93DF93FC016A3039F485816B
:1012B000848396818185890F86834DC084816E37B2
:1012C00019F48D5F848347C0262FEF0166816F5F1D
:1012D0002A3388F42033F0F42C3201F130F4213237
:1012E000F9F0273259F522E41CC02D32A9F02E3234
:1012F00029F52FE316C02B3528F4213448F42F3379
:1013000019F11CC09FE9920F9A31C0F4275409C00B
:10131000215407C02C5F05C021E403C023E401C0B1
:101320002EE33F81062E000C770B082E000C990B44
:10133000313061F445EB56E00E94611488858C5F82
:101340009C81890F8C8307C020E4EBCF45EB56E0EE
:101350000E94B315F3CF81E090E0DF91CF91089523
:10136000EF92FF920F931F93CF93DF937C0129E0BD
:10137000E20EF11CEC018B01081B190B6981C801FD
:101380008C0F9D1F0E948C162196CE15DF05B1F79C
:10139000DF91CF911F910F91FF90EF900895AF9241
:1013A000BF92CF92DF92EF92FF920F931F93CF9352
:1013B000DF93EC017B017E8B6D8B18826C0189E0E1
:1013C000C80ED11C8E015B01AC1ABD0AC501800F8D
:1013D000911F0E948A16F80181830F5F1F4F0C1521
:1013E0001D05A1F78A818032D9F08F7D81548A3121
:1013F000B8F0FE013196CE010A9620E22193E8175B
:10140000F907E1F7B701CE01DF91CF911F910F915D
:10141000FF90EF90DF90CF90BF90AF900C94B00909
:10142000DF91CF911F910F91FF90EF90DF90CF90C0
:10143000BF90AF9008950F931F93CF93DF938C01CC
:10144000EB010E9425348883C80101960E9425344F
:101450008983CE01DF91CF911F910F910895AF92B3
:10146000BF92DF92EF92FF920F931F93CF93DF9380
:10147000EC017B018B015C0182E0A80EB11CF8013C
:10148000D1908F01CE010E942534D81621F06D2D08
:10149000CE010E942D342196CA15DB0581F7C701C4
:1014A000DF91CF911F910F91FF90EF90DF90BF9050
:1014B000AF900895CF93DF9300D0CDB7DEB71A82F7
:1014C0001982BE016F5F7F4F0E941B0A89819A813A
:1014D0000F900F90DF91CF9108958F929F92AF92CE
:1014E000BF92CF92DF92EF92FF920F931F93CF9311
:1014F000DF93CDB7DEB72A970FB6F894DEBF0FBEE5
:10150000CDBF5C01CE0101967C014E019AE0890EAF
:10151000911C87016B01CE18DF08C601800F911F57
:101520000E948A16F80181938F01E815F905A9F741
:101530001A868AE0F701D50101900D928A95E1F7AC
:101540002A960FB6F894DEBF0FBECDBFDF91CF91C4
:101550001F910F91FF90EF90DF90CF90BF90AF90D1
:101560009F908F9008954F925F926F927F928F928B
:101570009F92AF92BF92CF92DF92EF92FF920F9322
:101580001F93CF93DF93CDB7DEB727970FB6F894AD
:10159000DEBF0FBECDBF082F81E991E00E948A1601
:1015A000182F82E991E00E948A16011115C01434A7
:1015B00099F4813489F485E0EDE1F1E0DE011196E2
:1015C00001900D928A95E1F78E010F5F1F4F6DEE2E
:1015D000E62EFF24F3946DC064E481E991E00E945B
:1015E0008C1661E482E991E00E948C1603E911E017
:1015F00060E0C8010E948C160F5F1F4F083F81E01A
:101600001807B1F78AE5882E81E0982E92E5A92E79
:1016100091E0B92E2AE4C22E21E0D22E32E4E32E4C
:1016200031E0F32E4AE5642E41E0742E5AE3452E54
:1016300051E0552E04E911E060E2C8010A960E94CB
:101640008C1660E2C80144960E948C16F4016191E8
:101650004F01C80101970E948C16F50161915F014D
:10166000C80187960E948C16F60161916F01C8012E
:10167000C1960E948C16F70161917F01C801CB963B
:101680000E948C16F30161913F01C8018B5B9F4F53
:101690000E948C16F20161912F01C801815B9F4F5E
:1016A0000E948C160F5F1F4F0C39F1E01F0721F6C7
:1016B00082CFF80181918F0190E09F838E83BE01DC
:1016C0006A5F7F4FC7010E942F0AF2E0EF0EF11C04
:1016D00087EFE81681E0F80661F727960FB6F894D1
:1016E000DEBF0FBECDBFDF91CF911F910F91FF9055
:1016F000EF90DF90CF90BF90AF909F908F907F90B2
:101700006F905F904F90089530910F0120911001DC
:10171000321709F459C04091120190911101809142
:101720000B01491319C090910A019F3FA9F45091F0
:10173000040150930A01309308012093090180931A
:10174000040140930F014093100190930B0190937B
:1017500012019093110138C0909108014091090144
:10176000941319C08F3F91F54091040140930B01F0
:10177000209312013093110120910A01209304015A
:1017800090930F019093100180930A0180930801B8
:101790008093090119C08F3FC9F4509104015093FF
:1017A0000B01309311012093120120910A01209323
:1017B000040190930F014093100180930A018093DC
:1017C00008018093090102C081E0089580E0089536
:1017D0001F93CF93DF93D82F40E0682F80E00E94C3
:1017E000D517C0E011E04C2F417041276D2F80E0EC
:1017F0000E94D5178AEF90E00E94CD15CF5FC630CA
:1018000091F7DF91CF911F9108950E947F1F0E9451
:101810008216982F987083FD0BC00E948216982F15
:10182000947082FD05C084E690E00E94CD15EFCF54
:10183000892F0895CF93DF93D82FC0E0CD1771F093
:101840000E94821683FD0AC00E94821682FD06C095
:1018500084E690E00E94CD15CF5FF0CFDF91CF916D
:101860000895CF92DF92EF92FF920F931F93CF9341
:10187000DF9383E8C82EC4BC86EE87BD90E8E92ECE
:10188000F12C21EFD22EF701D08208E810E0F80108
:101890001082CAE8D0E0188284E690E00E94CD155C
:1018A000C4BC8FEF87BDF701D082F8011082188287
:1018B000DF91CF911F910F91FF90EF90DF90CF902C
:1018C0000895BF92CF92DF92EF92FF920F931F93F2
:1018D000CF93DF9383E8B82EB4BCCC24CA94C7BCA2
:1018E00090E8E92EF12C21EFD22EF701D08208E802
:1018F00010E0F8011082CAE8D0E089E1888384E62C
:1019000090E00E94CD15B4BCC7BCF701D082F801AD
:1019100010821882DF91CF911F910F91FF90EF906D
:10192000DF90CF90BF9008955091E502552309F4C0
:1019300070C0E82FF0E0EE59FE4F9081892F82951C
:101940008F709F702091100130910F01231316C0EA
:10195000281711F0291323C0409109014F3F09F4C2
:1019600058C0409111014F3F09F453C040910C0100
:101970004F3F09F44EC0409106010FC0381711F0D7
:10198000391305C0409111014F3F09F442C0281797
:1019900011F0291304C0409109014F3FD1F140914A
:1019A00009014F3F29F42817A1F1291305C031C0BF
:1019B000481779F1491769F1409111014F3F29F416
:1019C000381739F1391305C024C0481711F14917E8
:1019D00001F15430E1F430910C013F3F29F4281714
:1019E000C1F0291305C015C0381799F0391789F0CF
:1019F000309106013F3F31F4281759F081E0291357
:101A000006C008C0381729F081E0391719F080E0C6
:101A1000089581E00895FF920F931F93CF93DF9372
:101A200090E0FC01E856FD4FF0802CE1289F8001FA
:101A3000299F100D1124C0E0D0E0CF1560F4FE0105
:101A4000E00FF11FE15CFD4F80810E94940C219614
:101A5000882399F301C080E0DF91CF911F910F910E
:101A6000FF90089590E0FC01E856FD4F50812CE175
:101A7000289FB001299F700D112420E030E080E004
:101A8000251798F4F901E60FF71FE15CFD4FE0819F
:101A9000F0E0EE59FE4F9081492F4F7092959F7064
:101AA000940F890F2F5F3F4FEBCF65E00E94D53435
:101AB000933028F4982F990F990F890F089594E087
:101AC000899F800D11248B5F089590E0FC01E85CF4
:101AD000FD4F4081FC01EF5CFD4F208130E0240F81
:101AE000311D81E02730310509F080E00895E62FAF
:101AF000F0E0EE59FE4F2081922F9F70981303C0A3
:101B0000922F92959F70892F08950F931F93CF93D3
:101B1000DF9380910401D0910E01C0910A01609180
:101B20000B018F3F61F4DF3FC9F4809107018F3FC4
:101B3000A9F4CF3F99F4862F6F3FB9F551C0DF3F2D
:101B400069F4809107018F3F49F4CF3F39F46F3F2B
:101B500061F590910F018091100141C0CF3F29F1B3
:101B60006F3F59F1809111010E944209082F6C2F9B
:101B7000809109010E944209182FDF3F39F06D2F33
:101B800080910C010E944209C82F01C0C0E0609101
:101B900007016F3F29F0809106010E94420901C0B0
:101BA00080E0100FC10F8C0F1BC06F3F31F0809190
:101BB00011010E944209D82F01C0D0E0CF3F31F07F
:101BC0006C2F809109010E94420901C080E02091A0
:101BD0000F0190911001291301C0990F8D0F890FEA
:101BE000DF91CF911F910F910895811105C081E080
:101BF000662339F080E00895623011F082E00895A4
:101C000081E00895EF92FF920F931F93CF93DF939C
:101C1000E82EF62E802FC22FD0E0042F10E020E017
:101C20008823E9F047EC55E0BE01C8010E94611429
:101C300022962E2D42EA55E0BE01C80102960E946E
:101C4000B3152F2D42EA55E0BE01C8010A96DF9177
:101C5000CF911F910F91FF90EF900C94B31540E13D
:101C600056E0BE01C8010E94611422962E2D4BEE53
:101C700055E0BE01C80102960E94B9152F2D4BEE0A
:101C800055E0BE01C8010A96DF91CF911F910F91D7
:101C9000FF90EF900C94B915DF92EF92FF920F93A3
:101CA0001F93CF93DF93D82E162FE22EF12CC42F43
:101CB000D0E020E0002301F148E655E0B701CE0175
:101CC0000E9461142296B7016E5F7F4F2D2D42EA6C
:101CD00055E0CE010E94B315B701665F7F4F212FFB
:101CE00042EA55E0CE01DF91CF911F910F91FF9015
:101CF000EF90DF900C94B31545E855E0B701CE01A5
:101D00000E9461142296B7016E5F7F4F2D2D4BEE1E
:101D100055E0CE010E94B915B701665F7F4F212FB4
:101D20004BEE55E0CE01DF91CF911F910F91FF90C7
:101D3000EF90DF900C94B915EF92FF920F931F93E1
:101D4000CF93DF93CDB7DEB7A1970FB6F894DEBF80
:101D50000FBECDBF811104C0E12CFF24F39404C059
:101D6000EE24E39482E0F82E8091930281110DC05D
:101D70008E2D0E940B0D182F811158C08F2D0E949F
:101D80000B0D182F811152C002C011E04FC08E2DD3
:101D90000E94320D082F8F2D0E94320D9BE1E8EC3E
:101DA000F1E0DE01119601900D929A95E1F708138A
:101DB0000EC0BE016F5F7F4FCE014C960E94941201
:101DC00041E062E0CE014C960E941B162BC08017AA
:101DD00088F4EF2DF0E0EB56FD4F9081090F081BC2
:101DE0000083BE016F5F7F4FCE014C960E9494121C
:101DF0002F2D12C0081748F6EE2DF0E0EB56FD4FE0
:101E00009081890F801B8083BE016F5F7F4FCE0161
:101E10004C960E9494122E2D41E062E0CE014C9629
:101E20000E94D215CE014C960E94A320812FA1962C
:101E30000FB6F894DEBF0FBECDBFDF91CF911F91DB
:101E40000F91FF90EF900895EF92FF920F931F93E1
:101E5000CF93DF93CDB7DEB7A9970FB6F894DEBF67
:101E60000FBECDBF811103C000E011E002C001E050
:101E700012E0802FE82FF0E0E856FD4F908191119D
:101E8000C7C093E2E3EEF1E0DE01119601900D92FE
:101E90009A95E1F7811113C0E02EF12C812F0E9459
:101EA000320DF701EB56FD4F9081890F808362E977
:101EB00076E0CE0184960E945C1220E09AC08130C8
:101EC00009F053C0113011F082E001C0802F0E9450
:101ED000320DE82EF12C6EE676E0CE0184960E945B
:101EE0005C1241E063E0CE0184960E941B16CE0195
:101EF00084960E94A32084E6E816F10458F4C701F2
:101F00006AE070E00E94E134605D688F805D898FD7
:101F100080E20FC0C70164E670E00E94E134605DBA
:101F2000688F7C016AE070E00E94E134605D698F37
:101F3000805D8A8F013011F0E12F01C0E1E0F0E017
:101F4000013009F411E0EB56FD4FA12FB0E0AB5684
:101F5000BD4F8C918E0D8083BE016F5F7F4FCE0190
:101F600084960E94941221E044C0802F0E94320D7A
:101F7000E82EF12C6AE476E0CE0184960E945C1291
:101F800022E041E063E0CE0184960E94D215CE01AA
:101F900084960E94A32084E6E816F10458F4C70151
:101FA0006AE070E00E94E134605D6A8F805D8B8F33
:101FB00080E20FC0C70164E670E00E94E134605D1A
:101FC0006A8F7C016AE070E00E94E134605D6B8F93
:101FD000805D8C8FE12FF0E0EB56FD4F80818E0D00
:101FE0008083BE016F5F7F4FCE0184960E94941262
:101FF00022E041E063E0CE0184960E94D215CE013A
:1020000084960E94A32084E08093940281E005C01E
:102010008F5F181708F02ECF80E0A9960FB6F894BE
:10202000DEBF0FBECDBFDF91CF911F910F91FF900B
:10203000EF900895CF93DF9300D000D000D0CDB7BC
:10204000DEB7811102C0E1E002C081E0E2E0A82F2A
:10205000B0E0AB56BD4F9C91953640F4F0E0EB56A6
:10206000FD4F80818536A8F480E043C0811111C006
:102070006FE376E0CE0101960E945C1241E063E0DE
:10208000CE0101960E941B16CE0101960E94A3204C
:102090002AC064E376E0CE0101960E945C1263E000
:1020A000CE0101960E94E420CE0101960E94A32059
:1020B0008FE3809318038093170384E180931903BF
:1020C000E0910301F0E0EE0FFF1FEE5DFE4F808117
:1020D00091810E94BB160E94A12086E092E00E949E
:1020E000A1200E94ED1F0E947F1F88EC0E941A0C05
:1020F00081E026960FB6F894DEBF0FBECDBFDF910C
:10210000CF910895CF92DF92EF92FF920F931F939A
:10211000CF93DF936C017A018B01C0E0D0E0CE1544
:10212000DF0581F0D8016D918D01D601ED91FC9113
:102130000190F081E02DC6010995892B11F02196BF
:10214000EECF7E01C701DF91CF911F910F91FF90DC
:10215000EF90DF90CF9008953FB7F8948091F00210
:102160009091F102A091F202B091F30226B5A89BE2
:1021700005C02F3F19F00196A11DB11D3FBFBA2F19
:10218000A92F982F8827820F911DA11DB11DBC0179
:10219000CD0142E0660F771F881F991F4A95D1F73E
:1021A000089580913303E0913103F0913203882345
:1021B00049F0CF01029690933203809331038591C9
:1021C00094910895CF010296909332038093310346
:1021D0008081918108958091E00208950895CF93C0
:1021E000DF93EC0188819981009711F00E9493356B
:1021F000198218821D821C821B821A82DF91CF9164
:1022000008950E94E2360F931F93CF93DF93EC0162
:1022100088819981009729F02A813B812617370709
:1022200088F48B016F5F7F4F0E941C36009761F02E
:10223000998388831B830A832C813D81232B11F48E
:10224000FC01108281E001C080E0DF91CF911F91FD
:102250000F9108950F931F93CF93DF9380916400A4
:102260008E7F8093640080917A00806480937A00EE
:1022700080917A0086FDFCCFC0917800D0917900E2
:102280000E94AC108E0120E030E098011127002759
:10229000600F711F821F931F2091640021602093A3
:1022A0006400611571058105910531F0DF91CF91D1
:1022B0001F910F910C940C34DF91CF911F910F91CE
:1022C0000895CF93DF93A82FFB01E901309111010D
:1022D00080910901380F80910E018F3F19F0809194
:1022E0000C0101C080E03150380F832F65E00E945F
:1022F000D534911108C08081831728F4308382E09F
:102300008883FA01A083DF91CF910895CF93DF9363
:10231000A82FFB01E9019091110180910901980F0B
:10232000809107018F3F19F08091060101C080E084
:10233000915020910E012F3F19F030910C0101C0F6
:1023400030E0890F380F832F65E00E94D53491115A
:1023500008C08081831728F4308381E08883FA01E4
:10236000A083DF91CF9108951F93CF93DF93182F10
:10237000FB01DA01E9018091E502823061F030F47D
:10238000813091F530911001325021C0833031F00D
:10239000843041F029C03091100102C03091090110
:1023A000315015C080910E018F3F19F090910C01B2
:1023B00001C090E0809107018F3F19F080910601E4
:1023C00001C080E0309109013150390F380F832F5F
:1023D00065E00E94D534911107C08081831720F4F5
:1023E000308384E088831C93DF91CF911F910895FF
:1023F0001F93CF93DF93182FFB01DA01E90150916E
:10240000E502533041F05430A9F05130A9F5309134
:102410000F01325024C0309111013150832F65E0FB
:102420000E94D534911128C08081831728F530830C
:10243000588321C080910E018F3F19F090910C01BB
:1024400001C090E0809107018F3F19F08091060153
:1024500001C080E0309111013150390F380F832FC6
:1024600065E00E94D534911107C08081831720F464
:10247000308383E088831C93DF91CF911F9108956F
:10248000CF93DF93A82FFB01E901309110018091D8
:102490000F01380F3150832F65E00E94D534911120
:1024A00008C08081831728F4308384E08883FA0190
:1024B000A083DF91CF910895EF92FF920F931F9326
:1024C000CF93DF93EC01198218821B821A821D823E
:1024D0001C826115710509F18B01CB010E941C342E
:1024E0007C01BC01CE010E940311811109C0CE0103
:1024F000DF91CF911F910F91FF90EF900C94EF100F
:10250000FD82EC82B80188819981DF91CF911F9182
:102510000F91FF90EF900C941534DF91CF911F91A4
:102520000F91FF90EF900895EF92FF920F931F93FA
:10253000CF93DF93EC01198218821B821A821D82CD
:102540001C826115710521F18B01FB0101900020B6
:10255000E9F731977F01E61AF70AB7010E940311E4
:10256000811109C0CE01DF91CF911F910F91FF9092
:10257000EF900C94EF10FD82EC82B8018881998174
:10258000DF91CF911F910F91FF90EF900C94F03657
:10259000DF91CF911F910F91FF90EF9008958F924F
:1025A0009F92AF92BF92CF92DF92EF92FF926B0118
:1025B0007C010E94AC104B015C01C114D104E10408
:1025C000F104F1F00E94AC10DC01CB0188199909EB
:1025D000AA09BB09883E9340A105B10570F321E02B
:1025E000C21AD108E108F10888EE880E83E0981E2F
:1025F000A11CB11CC114D104E104F10419F7DDCF11
:10260000FF90EF90DF90CF90BF90AF909F908F9012
:1026100008951F920F920FB60F9211242F933F939C
:102620008F939F93AF93BF9380911D0390911E034F
:10263000A0911F03B09120033091EF0223E0230FFC
:102640002D3720F40196A11DB11D05C026E8230FEA
:102650000296A11DB11D2093EF0280931D0390935C
:102660001E03A0931F03B09320038091F00290916A
:10267000F102A091F202B091F3020196A11DB11DE9
:102680008093F0029093F102A093F202B093F302D0
:10269000BF91AF919F918F913F912F910F900FBE5E
:1026A0000F901F901895CF92DF92EF92FF920F93A9
:1026B0001F93CF93DF930E94D110811520E89207DA
:1026C00061F4809171008D7F809371001092910070
:1026D000469847981092E8028BC021E02093E802C8
:1026E000813020E8920751F48091210390912203D8
:1026F00090933203809331030E94D11097FD05C05F
:102700002091E702222309F43FC02091E602211123
:102710003BC021E02093E902EC01DF77209769F4C8
:1027200081E08093EA0246983FE9C32E3FE0D32E32
:10273000E12CF12CCAEFD0E014C08E0120E030E093
:1027400060E472E48FE090E0A90198010E943B34BC
:1027500069017A0181E0C81AD108E108F1081092F4
:10276000EA02E091E102F091E2020995811103C0D1
:1027700081E08093EA028091E9028823B9F1809197
:10278000EA02811133C003C01092E902C5CF469915
:102790002DC0479A0E94D110009771F09C01DE0174
:1027A0000E94C634DC01CB0129E0B595A795979529
:1027B00087952A95D1F703C08FEF9FEFDC01109228
:1027C00090002AE020939100D0929900C092980046
:1027D0008093EB029093EC02A093ED02B093EE0293
:1027E0008091710082608093710002C04798D2CFBF
:1027F000DF91CF911F910F91FF90EF90DF90CF90DD
:1028000008951F920F920FB60F9211242F933F93AA
:102810004F935F936F937F938F939F93AF93BF93E8
:10282000EF93FF938091EB029091EC02A091ED0267
:10283000B091EE02892B8A2B8B2B81F18091EA02D9
:1028400081110BC098B180E4892788B98091E90291
:10285000882319F088B1805888B98091EB02909153
:10286000EC02A091ED02B091EE02181619061A06BC
:102870001B06B4F48091EB029091EC02A091ED0262
:10288000B091EE020197A109B1098093EB029093F8
:10289000EC02A093ED02B093EE0202C00E9453132B
:1028A000FF91EF91BF91AF919F918F917F916F9128
:1028B0005F914F913F912F910F900FBE0F901F90FE
:1028C00018950F930AEF0E94681D0F9108950F93BA
:1028D0001F93CF93DF93182FD62FC42F00E022E34E
:1028E00047E360E070E080E090E00E94A820D11112
:1028F0000CC040E060E080E00E94D51760E0812FCE
:102900000E94F50D40E0682F0BC06D2F812F0E94B3
:10291000F50D40E0682F80E00E94D51740E06D2F54
:1029200081E00E94D5171091E502111107C061E006
:10293000C11160E083E10E941821D5C01230C1F4BA
:1029400001E0C43009F000E027E149E060911201A4
:10295000809111010E94020E01E0C11100E027E107
:102960004CE16091100180910F010E94020EBBC0EA
:10297000143059F5E0910E01EF3F41F461E0C130B0
:1029800009F060E085E00E9409211FC0F0E0EE59E7
:10299000FE4F8081982F92959F708F709813AFC0D3
:1029A00001E0C13009F000E026E043E160910D0153
:1029B00080910C010E94020E20E04EEE57E060E193
:1029C00070E087E190E00E946114E0910B01EF3F1D
:1029D00041F461E0C43009F060E081E00E94182118
:1029E0001FC0F0E0EE59FE4F8081982F92959F70A6
:1029F0008F70981391C001E0C43009F000E023E12A
:102A000041E060911201809111010E944C0E20E082
:102A100040EE57E067E170E08BE090E00E946114C7
:102A200001E0C11100E027E143E1609110018091D4
:102A30000F010E94020EE0910A01EF3F41F461E0B4
:102A4000C33009F060E085E20E9418211FC0F0E069
:102A5000EE59FE4F8081982F92959F708F7098133A
:102A600068C001E0C33009F000E023E14CE260916E
:102A70000901809108010E944C0E20E042ED57E0D0
:102A800067E170E085E290E00E946114143059F52E
:102A9000E0910701EF3F41F461E0C23009F060E0EE
:102AA00081E20E9409211FC0F0E0EE59FE4F8081B3
:102AB000982F92959F708F70981348C001E0C23094
:102AC00009F000E028E243E16091060180910501F0
:102AD0000E94020E20E047EC57E061E270E087E1DF
:102AE00090E00E94611440E06091E4028D2F0E940A
:102AF000D416DF91CF911F910F910C94ED1F01E03F
:102B0000C13009F000E025E047E160910D018091BE
:102B10000C010E944C0E59CF01E0C43009F000E0D6
:102B200027E141E060911201809111010E94020EA3
:102B300077CF01E0C33009F000E027E145E2609182
:102B40000901809108010E94020EA0CF01E0C2306D
:102B500009F000E021E247E1609106018091050162
:102B60000E944C0EC0CF0F930BEF0E94681D0F9177
:102B700008950F9302E00E94681D0F910895F89444
:102B800087E78093000880930108A89588E18093E7
:102B9000600088E080936000FFCFBC0180E090E09F
:102BA0000C94CF12FF920F931F93CF93DF938C015E
:102BB000F62EC42FD22F84EF91E00E94CD158F2DD9
:102BC0000E949D1C10921A0382E0F81611F087E013
:102BD00001C08AE09EE390931803909317038093BB
:102BE0001903F801448155816081718183E193E08B
:102BF0000E94821081E080931A030E94ED1FD3305F
:102C0000B1F06D2F8091E3020E943419CC2339F08A
:102C1000DF91CF911F910F91FF900C94050C85E0EF
:102C2000DF91CF911F910F91FF900C941A0CC1115D
:102C3000EFCF84E1F5CFCF92DF92EF92FF920F9327
:102C40001F93CF93DF9300D000D000D0CDB7DEB775
:102C5000D62EC42E1A8219821C821B821E821D82CD
:102C6000FC010081118101151105A9F0E480F580B6
:102C7000B701CE0101960E940311811105C0CE015A
:102C800001960E94EF1007C0FE82ED82B801898193
:102C90009A810E94F03623E04C2D6D2DCE010196D5
:102CA0000E94D215CE0101960E94A32026960FB64F
:102CB000F894DEBF0FBECDBFDF91CF911F910F9172
:102CC000FF90EF90DF90CF9008951F93CF93DF9305
:102CD000D82F40E0682F81E00E94D517C0E011E0B6
:102CE0004C2F417041276D2F81E00E94D5178AEF4C
:102CF00090E00E94CD15CF5FC63091F7DF91CF9164
:102D00001F9108958FB18095807F669B88601C9B82
:102D1000846008950C9425341F93CF93DF93EC01C6
:102D2000162F0E942534181739F0612FCE01DF913C
:102D3000CF911F910C942D34DF91CF911F91089565
:102D400080389105B8F460347105A0F490E121E079
:102D500061FD24E060FD220F62FD2295687F969F51
:102D6000D0011124A80FA15CBC4F8C91822B40FF95
:102D700082278C930895FC0131969C01265F3F4F7A
:102D800041914187E217F307D9F7FC0174969C0142
:102D9000245F3F4F4291403211F00B96089510820C
:102DA000E217F307B9F7F9CF5F926F927F928F9294
:102DB0009F92AF92BF92CF92DF92EF92FF920F93CA
:102DC0001F93CF93DF93D82F662E542E811106C008
:102DD00060E08091E3020E94F50DD82F00E020E42E
:102DE00040E867E370E080E090E00E94A820109146
:102DF000F402C12F8AE0782E8D2F90E09C01285696
:102E00003D4F5901E12EF12C4CE1489F9001499F23
:102E1000300D1124C901815C9D4F4C018C2F811B09
:102E2000F5019081C91770F5CC2ED12C511014C02A
:102E3000F401EC0DFD1DE081F0E0EE59FE4F8081C4
:102E400001E0C61100E0682F6F7027E3472D8295DF
:102E50008F700E94020E0CC0F2E18F9FC0011124FE
:102E600020E041EF5EE067E370E00A960E94B9154A
:102E700022E1720ECE18DF0835E0C316D10414F437
:102E8000CF5FCCCF21E0111101C020E04BED5EE01F
:102E900067E370E080E090E00E94B91580919902AC
:102EA00090E08E199F0921E007970CF420E045EC93
:102EB0005EE067E370E08AE790E00E94B915DF9179
:102EC000CF911F910F91FF90EF90DF90CF90BF9027
:102ED000AF909F908F907F906F905F900C94ED1FBC
:102EE000BF92CF92DF92EF92FF920F931F93CF93F7
:102EF000DF93E82EB62ED42EC22E00E025E34FE756
:102F000060E070E08AE390E00E94A820F12C11E0DC
:102F1000D0E0CAE380919302F81610F0F12C31C092
:102F20006D2F70E08C2F90E020E0FB1003C045E196
:102F30005FE002C042E35FE00E94B915C65FC73799
:102F400018F0DE5E1F5FCAE3F394E4CFEF2DF0E0EC
:102F5000EB50FD4FE081F0E0EE59FE4F8081682F8D
:102F60006F7000E02D2F4C2F82958F700E944C0EB9
:102F7000C65FC73718F0DE5E1F5FCAE3143028F45F
:102F8000F39480911103F81608F34C2D6D2D8E2DBE
:102F90000E94D416DF91CF911F910F91FF90EF9077
:102FA000DF90CF90BF900C94ED1F0F931F93CF93A2
:102FB000DF9370E0FB01EB56FD4FC0818111B1C082
:102FC00041114DC0FB01E856FD4F108100E02FE09C
:102FD00040E160E070E080E090E00E94A8208C2F4B
:102FE00064E60E94D534D82F282F4BE95EE060E0DC
:102FF00070E081E090E00E94B9158C2F94E6D99F93
:1030000080191124DAE06D2F0E94D534C92F282FA2
:103010004BE95EE060E070E086E090E00E94B91568
:103020002C2F4BE95EE060E070E08BE090E00E94C6
:10303000B915812F6D2F0E94D534C92F282F4BE948
:103040005EE068E070E081E090E00E94B9152C2F0E
:103050004BE95EE068E070E086E090E097C0809128
:1030600071008D7F809371001092330383E293E0AF
:103070009093320380933103909322038093210332
:1030800083E890E0909324038093230382E390E00D
:10309000909326038093250323E930E0309328039F
:1030A0002093270390932A038093290325EA30E095
:1030B00030932C0320932B0390932E0380932D03A6
:1030C0000E94531301E027E040E160E070E080E0FF
:1030D00090E00E94A8208C2F64E60E94D534D82F5F
:1030E000282F4BE95EE060E070E081E090E00E9414
:1030F000B3158C2F94E6D99F801911246AE00E94A1
:10310000D534C92F282F4BE95EE060E070E086E0FF
:1031100090E00E94B3152C2F4BE95EE060E070E078
:1031200099C0813009F09AC0411133C000E027E016
:1031300040E16CE270E080E090E00E94A8208C2FDB
:1031400064E60E94D534D82F282F4BE95EE06CE26C
:1031500070E081E090E00E94B9158C2F94E6D99F31
:10316000801911246AE00E94D534C92F282F4BE919
:103170005EE06CE270E086E090E00E94B9152C2FD2
:103180004BE95EE06CE270E08BE090E00E94B915E4
:1031900065C0809171008D7F809371001092330320
:1031A00083E293E090933203809331039093220360
:1031B0008093210386E091E090932403809323037E
:1031C0008EE190E0909326038093250326E231E080
:1031D000309328032093270390932A038093290395
:1031E0002AE431E030932C0320932B0390932E0399
:1031F00080932D030E94531301E027E040E16CE22D
:1032000070E080E090E00E94A8208C2F64E60E948D
:10321000D534D82F282F4BE95EE06CE270E081E0D6
:1032200090E00E94B3158C2F94E6D99F8019112449
:103230006AE00E94D534C92F282F4BE95EE06CE28A
:1032400070E086E090E00E94B3152C2F4BE95EE021
:103250006CE270E08BE090E00E94B315DF91CF91BB
:103260001F910F910C94ED1F1F93CF93DF93D62FD7
:103270000E94F50DC82F40E0D1111AC060E080E037
:103280000E94D51740E06C2F81E00E94D517C0E066
:10329000D1E04C2F41704D2760E080E00E94D517AF
:1032A0008AEF90E00E94CD15CF5FC63091F719C02C
:1032B000682F80E00E94D51740E06D2F81E00E94CA
:1032C000D517C0E011E04C2F417041276D2F81E0F0
:1032D0000E94D5178AEF90E00E94CD15CF5FC630CF
:1032E00091F7DF91CF911F910895FF920F931F9354
:1032F000CF93DF93F82E062F142FC62FD0E0842F04
:1033000090E0223009F495C030F4222359F02130A6
:1033100009F459C048C0233009F4C1C0243009F46D
:10332000FBC041C0309104013F3FE9F44CE14C9FA8
:1033300090014D9F300D1124215C3D4FF901E80FA4
:10334000F91FE081E0930401F0E0EE59FE4F808127
:10335000282F30E094E0359527959A95E1F7209352
:103360000F018F701EC020911103E22FF0E0EB508F
:10337000FD4F30832F5F209311034CE14C9F900150
:103380004D9F300D1124215C3D4FF901E80FF91FCD
:103390006081609304018091100180930F010E946D
:1033A000770D80931001DE01A856BD4F2C91822F1E
:1033B00090E001973CE13C9FA0013D9F500D1124FE
:1033C000415C5D4FE6C030910E013F3F89F44CE116
:1033D0004C9F90014D9F300D1124215C3D4FF90110
:1033E000E80FF91F608160930E01809110011AC0EF
:1033F00020911103E22FF0E0EB50FD4F30832F5F5F
:10340000209311034CE14C9F90014D9F300D1124EE
:10341000215C3D4FF901E80FF91F608160930E01B7
:1034200080910C0180930D010E94770D80930C0117
:10343000BACF309107013F3F89F44CE14C9F900196
:103440004D9F300D1124215C3D4FF901E80FF91F0C
:10345000608160930701809110011AC020911103CF
:10346000E22FF0E0EB50FD4F30832F5F20931103EC
:103470004CE14C9F90014D9F300D1124215C3D4F3C
:10348000F901E80FF91F608160930701809106013F
:10349000809305010E94770D8093060184CF3091BF
:1034A0000A013F3FC1F44CE14C9F90014D9F300D0C
:1034B0001124215C3D4FF901E80FF91F60816093F1
:1034C0000A01809104018F3F19F4809108011FC007
:1034D000809110011AC020911103E22FF0E0EB500F
:1034E000FD4F30832F5F209311034CE14C9F9001DF
:1034F0004D9F300D1124215C3D4FF901E80FF91F5C
:10350000608160930A0180910901809308010E9403
:10351000770D8093090147CF30910B013F3FC1F4F4
:103520004CE14C9F90014D9F300D1124215C3D4F8B
:10353000F901E80FF91F608160930B01809104018C
:103540008F3F19F4809112011FC080910F011AC0A2
:1035500020911103E22FF0E0EB50FD4F30832F5FFD
:10356000209311034CE14C9F90014D9F300D11248D
:10357000215C3D4FF901E80FF91F608160930B0159
:1035800080911101809312010E94770D80931101A7
:103590000ACFE12FF0E0E817F90734F4E40FF51F44
:1035A000318130831F5FF5CF3CE13C9FA0013D9FFF
:1035B000500D1124415C5D4FFA01E80FF91F108294
:1035C00021502C931091E502113071F028F0123047
:1035D000A9F01330C9F027C090910F01809110011C
:1035E000981741F081E007C00E94840B811102C04E
:1035F00082E001C083E08093E50215C00E94840B45
:10360000882379F013E00DC080910B018F3F49F0C2
:10361000809104018F3F29F080910A018F3F09F0CA
:1036200014E01093E5024FEF602F8F2D0E94671476
:103630000E94850D282F65E00E94D53491111FC08E
:103640002223E9F020E04091E4026FEF802F0E94F6
:1036500070170E94850DCB56DD4F9881890F8883A6
:10366000602F8F2D0E94341940E06091E402802F7A
:10367000DF91CF911F910F91FF900C94D41620E011
:103680004091E4026FEF802FDF91CF911F910F9156
:10369000FF900C947017AF92BF92CF92DF92EF928F
:1036A000FF920F931F93CF93DF93A82EC62ED42E95
:1036B000E901B090E50283E0B816A9F0E4E0BE1697
:1036C00029F1F1E0BF1247C0842F0E94650D8111DE
:1036D00038C0AA2011F082E0B82E80910F01BD9C65
:1036E000800D11242FC0842F0E94650D811129C0E7
:1036F00080910B018F3F31F48091100190910F0167
:10370000890F02C0809111018D0D1CC0842F0E9471
:10371000650D811116C080910E018F3F19F0209127
:103720000C0101C020E0809107018F3F19F09091BA
:10373000060101C090E0809111018D0D820F890F6B
:1037400001C080E09881891730F4888383E0F70115
:103750008083F801C082DF91CF911F910F91FF907C
:10376000EF90DF90CF90BF90AF900895AF92BF924F
:10377000CF92DF92EF92FF920F931F93CF93DF933D
:10378000A82EB62ED42EE901C090E50282E0C8161C
:1037900069F08C1520F0E1E0CE1681F05BC0F3E01B
:1037A000CF1609F184E0C81681F154C0842F0E941D
:1037B000650D811145C08091100140C0842F0E9489
:1037C000650D81110AC0AA2011F082E0C82E8091F7
:1037D0001001CD9C800D112401C080E098818917D3
:1037E000C8F5888332C0842F0E94650D811128C0DE
:1037F00080910A018F3F31F49091100180910F0167
:10380000890F1CC08091090119C0842F0E94650D89
:10381000811116C080910E018F3F19F090910C011B
:1038200001C090E0809107018F3F19F0809106015F
:1038300001C080E020910901D20ED90ED80E01C03E
:10384000D12C8881D81630F4D88284E0F7018083A7
:10385000F801B082DF91CF911F910F91FF90EF900F
:10386000DF90CF90BF90AF900895CF92DF92EF920C
:10387000FF920F931F93CF93DF93C82ED62EEA01AA
:103880007901862F0E94650D811110C06091110190
:1038900080910901680F80910E018F3F19F090917E
:1038A0000C0101C090E06D0D690F01C060E08881DE
:1038B000681730F4688382E0F8018083F701C082E2
:1038C000DF91CF911F910F91FF90EF90DF90CF90FC
:1038D0000895CF92DF92EF92FF920F931F93CF93B1
:1038E000DF93C82ED62EEA017901862F0E94650D3E
:1038F000811110C06091110180910901680F8091C0
:1039000007018F3F19F09091060101C090E06D0D05
:10391000690F01C060E08881681730F4688381E036
:10392000F8018083F701C082DF91CF911F910F9141
:10393000FF90EF90DF90CF9008950F93CF93C82F13
:1039400000E025E34FE760E070E08AE390E00E944A
:10395000A820C23019F463E0C7E102C062E0CAE106
:1039600070E020E049EF57E08AE390E00E946114A4
:103970006C2F70E021E049EF57E08AE390E0CF91AF
:103980000F910C946114EF92FF920F931F93CF93BA
:10399000DF93C82F00E025E34FE760E070E08AE3A3
:1039A00090E00E94A820D2E093E0E92EF12C0E9442
:1039B000B81F882349F183E00E949D1C10911203D7
:1039C000212F49EB59E067E070E081E590E00E942B
:1039D000B3158091370390913803B7010E94E13409
:1039E000892B19F41F5F10931203809112038C30FE
:1039F00020F4D13031F4893029F4D15010921203DF
:103A000001C0D2E00E94ED1F0E94821683FD06C015
:103A10000E94821682FD02C0D111C9CF10921203FA
:103A200083E00E949D1C10921A038EE3809318037A
:103A3000809317038AE0809319038FE999E00E942D
:103A4000F01FEC2FF0E0EE59FE4FC08120E040E186
:103A500056E065E170E080E590E00E94B3152C2F00
:103A600030E084E0359527958A95E1F74BEE55E0F7
:103A700067E170E082E590E00E94B3152C2F2F7073
:103A80004BEE55E067E170E08AE590E00E94B315E7
:103A900081E080931A030E94ED1F84E1DF91CF91B2
:103AA0001F910F91FF90EF900C941A0C009769F002
:103AB000FC0101900020E9F73197AF01481B590B39
:103AC000BC0183E193E00C94821080E090E00895C3
:103AD0004F925F926F927F928F929F92AF92BF921E
:103AE000CF92DF92EF92FF920F931F93CF93DF93CA
:103AF00000D000D0CDB7DEB7DC016A014115510519
:103B000009F4E8C1FA01849131965491F2E0CF0EA4
:103B1000D11CE82EF12C2223F9F0E1E0F0E0952F02
:103B2000977011F4E0E0F0E0952F969596959695B4
:103B3000E90FF11DEE9D5001EF9DB00CFE9DB00C04
:103B40001124033011F4AA0CBB1C2A9DF0012B9DFB
:103B5000F00D1124CE0EDF1E0F3F09F402E0FD012F
:103B6000EE0DFF1D1E161F060CF0B4C1A038B105E6
:103B70000CF0B0C19B01250F311D121613060CF07D
:103B8000A9C1603471050CF0A5C1C114D10409F4B8
:103B9000A1C1362F37705B0177FF03C097E0A90EF4
:103BA000B11C93E0B594A7949A95E1F72A2D77FF7D
:103BB00004C0332311F02FEF2A0DB7FF05C088246E
:103BC00099248A1A9B0A02C0812C912CE038F105B5
:103BD0001CF090E89A1B01C0982F9819622F022EB2
:103BE000000C770B2F3F1CF4462F409501C040E09E
:103BF000F1E0152F177009F4F0E05695569556959B
:103C0000F50F6F0F711D6930710514F0F8E0F21BAC
:103C1000F41B240F50E82503A00DB11D1124A80D9D
:103C2000B91D849F800C911C1124A601480D591DBB
:103C300061E070E06B01032E02C0CC0CDD1C0A9425
:103C4000E2F7033009F402C1C0F4013009F4B6C050
:103C5000023009F03FC18FEF8C9D80018D9D100DCA
:103C60001124009510951C830B839C80BD01615C21
:103C70007C4F2B018F2E820E2AC00A3FD9F10B3FB9
:103C800009F028C1BD01615C7C4F4B01BF2EB20E13
:103C900083C084918C9D50018D9DB00C1124BA82FB
:103CA000A98227FD05C0DB018C918023A82AAC9254
:103CB000311113C031966F5F7F4F8E2F841B891790
:103CC00040F32F5F4E0D5F1DB0E84B0E511C2815C1
:103CD00009F400C1B201FA01F0CF27305CF75B01B3
:103CE000B0E8AB0EB11CD5018C9189217A8087296F
:103CF0008C93E0CFBD01615C7C4F4B01BF2EB20EB7
:103D00002B1509F4E7C0B401FA018E2F841B891723
:103D1000F0F484918C9D80018D9D100D11241A83E7
:103D2000098327FD04C0DB018C91082B0C933323FE
:103D300051F0273044F48B0100581F4FD801AC904C
:103D40008A818A298C9331966F5F7F4FDECF2F5FF8
:103D50004E0D5F1DB0E88B0E911CD2CF84918C9DCF
:103D6000B0018D9D700D11247A83698327FD05C0F4
:103D70006095D8018C9168236C93311113C03196F2
:103D80000F5F1F4F8E2F841B891740F32F5F4E0D3F
:103D90005F1DB0E88B0E911C2B1509F49BC08401AC
:103DA000FA01F0CF27305CF7B80160587F4F8A8165
:103DB0008095DB01AC908A218C93E1CFA15CBC4F54
:103DC0008F2F820F841A950A281709F483C08D015A
:103DD000A12CB12CA916A0F5F501E80DF91DE40FF1
:103DE000F51FE491EC9DB001ED9D700D11246095DF
:103DF00070957C836B83FA01EA0DFB1DE491EC9DC9
:103E00003001ED9D700C11247A82698227FD05C076
:103E1000F80170816723662A6082332359F02730C6
:103E20004CF4F801E058FF4F70816C8167237A8170
:103E3000672B6083FFEFAF1ABF0A0F5F1F4FCACF18
:103E40002F5F4E0D5F1DA058BF4FBECF092F10E052
:103E5000840E951EA15CBC4F60E870E0601B710B86
:103E6000E01AF10AA701440F551F192F0F2F792EC1
:103E7000F401E32ECF93DF93ED01EF96EF962296B8
:103E80008590A590EE2059F08C9C4001AC9C50018F
:103E900027302CF4F880B094FB20F928F9922223E3
:103EA0003AF0FC90A094FA20F828FD920C94591F47
:103EB00011961A9529F70A9551F0172D239511247B
:103EC000E40FF11DA60FB11DC60FD11DD9CFDF9193
:103ED000CF9111240F900F900F900F90DF91CF9101
:103EE0001F910F91FF90EF90DF90CF90BF90AF9018
:103EF0009F908F907F906F905F904F900895CF9399
:103F0000DF93C4E3D3E08D818E830E9482168D837C
:103F1000DF91CF910895EFE3F3E0A0E0B8E00080F7
:103F20000EBC8111012C1197A0FDFDCF0192B9F7B4
:103F30000DB408959C01E1E7F0E090819D7F9083AE
:103F400010923303E3E2F3E0F0933203E0933103A2
:103F5000F0932203E0932103318320838EE190E0EC
:103F60009383828380E090E8958384830C94531339
:103F70008FB7F89440911D0350911E0360911F0369
:103F8000709120038FBF80913C03942F981B8091E8
:103F90003D03882331F090933E0310923D0380E06F
:103FA000089520913B03921740F49F5F9217A0F46D
:103FB00091E093BF889513BE089581E080933D03FF
:103FC00040933C038091370390913803019690937E
:103FD00038038093370381E0089580E00C948B1FB1
:103FE0000F931F93CF93DF938C01C0E0D0E0F801D3
:103FF000EC0FFD1F6491662341F083E193E00E9482
:104000005209892B11F02196F2CFCE01DF91CF9189
:104010001F910F91089580E0EFE3F3E081118FEF9E
:10402000002481938193819381930394D1F7089520
:104030008F929F92AF92BF920F931F93CF93DF9374
:10404000CDB7DEB7A1970FB6F894DEBF0FBECDBFD8
:1040500019A2423008F44AE08E010F5D1F4F842EF2
:10406000912CA12CB12CA50194010E94A434E62F1F
:10407000B901CA0101501109EA3014F4E05D01C030
:10408000E95CD801EC93232B242B252B61F7C80185
:104090000E94561DA1960FB6F894DEBF0FBECDBF8D
:1040A000DF91CF911F910F91BF90AF909F908F9014
:1040B0000895EF92FF920F931F93CF93DF9300D059
:1040C0001F92CDB7DEB7062F9C0197FF03C0319535
:1040D00021953109EAE0F0E0C901BF010E94E13415
:1040E0008983CB01BF010E94E1348A83C90164E660
:1040F00070E00E94E134CB01BF010E94E1348B8368
:104100007E0184E0E80EF11C12E510931803109371
:10411000170300931903F70162917F0170E080E0BB
:1041200090E04AE00E9418201B5F113671F70F9053
:104130000F900F90DF91CF911F910F91FF90EF9013
:1041400008950C94561DFC01808191810C94933547
:104150008F929F92AF92BF92CF92DF92EF92FF9297
:104160000F93CF93DF936B01EC014C01840E911CF4
:104170005B01A20EB11CC815D905D4F47601D7FE97
:1041800002C0E12CF12CC50121E4A216B10414F007
:1041900080E490E0E816F9064CF4402FB701CE0118
:1041A0000E94A0168FEFE81AF80AEDCF2196E3CF10
:1041B000DF91CF910F91FF90EF90DF90CF90BF9064
:1041C000AF909F908F9008951F93CF93DF93EC0152
:1041D000162F862F0E949D1C10921A03123011F088
:1041E00087E001C08AE09EE3909318039093170341
:1041F000809319034C815D816881798183E193E02B
:104200000E94821081E080931A03DF91CF911F9169
:104210000895962F682F70E020E0992319F047E960
:104220005FE002C044EB5FE087E190E00C94B915D9
:1042300090E020E0662319F04FE45FE002C043E71E
:104240005FE067E170E00C94B91520E04DEC50E1BF
:1042500060E070E081E090E00E94B91520E04BEF53
:104260005FE060E070E085E690E00C94B9152F9275
:104270003F924F925F926F927F928F929F92AF92F6
:10428000BF92CF92DF92EF92FF920F931F93CF9343
:10429000DF93CDB7DEB7E6970FB6F894DEBF0FBE5B
:1042A000CDBF23E824BD2FEF27BD21EF2093800051
:1042B0001092880010928A009E01255F3F4F1901DD
:1042C000009709F401C10E94BB16D82EC92E18A26E
:1042D0001F8E0DEE11E0EBEBEE2EFF24F394552430
:1042E0005A94412CB701CE0101960E946D0AC80173
:1042F0000E945A0A98A38F8FDE0111966D2C7C2C98
:10430000ED2DFC2D21E04D913191431320E02A1633
:104310003B06C9F7222309F468C0019698A38F8F42
:10432000BE01615E7F4FC8010E942F0A542C4420B9
:1043300009F4CCC0042D10E0000F111F580133E127
:10434000A31A3EEFB30AC5010E945A0A7C01055127
:104350001E4FC8010E945A0AE816F90608F443C025
:104360008AE0489E600111247601E5E4EE1AEEEF42
:10437000FE0AFBE3CF1AFEEFDF0AC7010E948A168E
:10438000782E47012AE0821A9108C4010E948A16F9
:10439000682FC7010E948C16672DC4010E948C16DD
:1043A0003FEFE31AF30ACE14DF0439F71E8A1D8AA1
:1043B0001C861B86BE016B5E7F4FC5010E941B0AD7
:1043C000B101C8010E941B0AB101C5010E942F0A58
:1043D000BE016B5E7F4FC8010E942F0A451003C0CB
:1043E00055245A94540C4A94A2CF029720F48FEF8C
:1043F000581201C0542C4394EAE0EE0EF11C0E5FFB
:104400001F4FF5E04F126ECF2FEF521609F45EC02A
:1044100049EDE42EFF24F39453EFC52EDD24D3940D
:1044200064E0462E541448F557013AE0A30EB11C3F
:1044300087013AE0832E912CC8010E948A16682FCA
:10444000C401800F911F0E948C160F5F1F4FA01692
:10445000B10691F71C861B86B101C6010E941B0A9A
:10446000B101C60102960E942F0A4A9482E0C81A3E
:10447000D108EAE0EE1AF108D5CFFAE05F9EC0015C
:1044800011248C0105541E4F7C012CE3E21A2EEFFF
:10449000F20AF30161913F01C8010E948C160F5F7F
:1044A0001F4FE016F106A9F781E090E098A38F8FE7
:1044B000852D90E0880F991FBE01615E7F4F83516B
:1044C0009E4F0E942F0A02C055245A946BEB71E054
:1044D000CE0101960E946D0A65EC71E0C1010E9457
:1044E0006D0A6FEC71E0CE0145960E946D0A69ED90
:1044F00071E0CE014F960E946D0A63EE71E0CE012D
:1045000089960E946D0A8DEE91E00E945A0A9CAB3A
:104510008BAB8FEE91E00E945A0A9EAB8DAB81EF80
:1045200091E00E945A0A7C0183EF91E00E945A0AAE
:104530006C0185EF91E00E945A0A5C0188248A94FC
:1045400000E083E8782E66246A9491EF492E10E209
:1045500080919402873009F013C10E94B81F811125
:1045600006C064E170E080E090E00E94CF120E94FB
:104570007F1F8091390390903A039094982280761F
:10458000803609F05FC00F5F053108F466C00D3357
:1045900008F44AC00D3309F060C074BC67BC409297
:1045A00080001092880010928A0081E00E94B30A75
:1045B0006BEB71E0CE0101960E946D0A65EC71E033
:1045C000C1010E946D0A6FEC71E0CE0145960E9418
:1045D0006D0A69ED71E0CE014F960E946D0A63EE9F
:1045E00071E0CE0189960E946D0A8DEE91E00E94E5
:1045F0005A0A9CAB8BAB8FEE91E00E945A0A9EAB9D
:104600008DAB81EF91E00E945A0A7C0183EF91E02B
:104610000E945A0A6C0185EF91E00E945A0A5C01DF
:1046200000E055245A9419C080E490E0801B910961
:10463000880F74BC67BC4092800010928800809301
:104640008A000BC0002349F074BC67BC4092800014
:104650001092880010928A0000E093FE03C081E06F
:1046600080939402809137039091380368E370E05F
:104670000E94E134982E882029F0882329F08A941A
:10468000811002C055245A940E94252120E04FE950
:1046900051E163E070E08FE190E00E94B915FCE128
:1046A000F915A8F0511013C01093180310931703B5
:1046B0002DE120931903C1010E94A1206DE18DA974
:1046C0009EA90E9459203CE1391550F516C010935F
:1046D00018031093170384E180931903CE01019608
:1046E0000E94A12064E18BA99CA90E945920ECE1C1
:1046F000E915D0F2F1E05F12D7CF109318031093B1
:10470000170326E220931903CE0145960E94A120AB
:1047100066E2C7010E9459203CE13915B8F403C094
:1047200082E05812EACF1093180310931703EFE2B8
:10473000E0931903CE014F960E94A1206FE2C601BB
:104740000E945920FCE1F915A0F403C023E05212A5
:10475000EACF109318031093170338E3309319032B
:10476000CE0189960E94A12068E3C5010E945920CC
:1047700003C084E05812EDCF81E00E948B1FE8CE89
:10478000E6960FB6F894DEBF0FBECDBFDF91CF9196
:104790001F910F91FF90EF90DF90CF90BF90AF905F
:1047A0009F908F907F906F905F904F903F902F9051
:1047B00008951F93CF93DF9300D000D000D0CDB7E2
:1047C000DEB7182F80910301813011F061E001C044
:1047D00062E0609303018091E3020E94F50D40E0E6
:1047E000682F80E00E94D51740E06091030181E0CE
:1047F0000E94D51741E06FEF809103010E94D4160B
:104800001123B1F06FED7FE0CE0101960E945C12A2
:1048100063E0CE0101960E94E420CE0101960E9441
:10482000A3208FE380931803809317038FE115C0B3
:1048300061ED7FE0CE0101960E945C1262E0CE0144
:1048400001960E94E420CE0101960E94A3208FE3EE
:10485000809318038093170387E1809319031092C4
:104860001A03E0910301F0E0EE0FFF1FEE5DFE4F33
:10487000808191810E94BB160E94A12081EE91E06F
:104880000E94A12081E080931A030E94ED1F0E94E4
:104890007F1F88EC0E941A0C88E080939402269671
:1048A0000FB6F894DEBF0FBECDBFDF91CF911F9141
:1048B0000895CDB7DEB7E097DEBFCDBF11E010930E
:1048C000E0001092E2001092E10080E28093D800B4
:1048D0001092D7008091650080688093650078947D
:1048E00084B5826084BD84B5816084BD85B58260F5
:1048F00085BD85B5816085BD80916E0081608093A6
:104900006E0010928100809181008260809381000E
:10491000809181008160809381008091800081601E
:1049200080938000809191008260809391008091BB
:1049300091008160809391008091900081608093CC
:1049400090008091C10084608093C1008091C1007B
:1049500082608093C1008091C10081608093C1001A
:104960008091C30081608093C3008091C000826009
:104970008093C0008091C20081608093C2008091CA
:104980007A00846080937A0080917A0082608093BC
:104990007A0080917A00816080937A0080917A0019
:1049A000806880937A00559A209A5D9A289A8C9A0A
:1049B00084988AE090E00E94CD157C9B0E94BF15F0
:1049C00081EC80937C0085B1806F85B984B1877E4E
:1049D00084B984B1876E84B95E9A5F988AB1806D1C
:1049E0008AB9769A6E9881B3806F81BB899880B3BB
:1049F0008D7080BB80E58CBD1DBD85E090E00E9480
:104A0000CD155F9A85E090E00E94CD155E985C9888
:104A1000ECEBF0E089EC90E024912EBD00000DB4A9
:104A200007FEFDCF31968E179F07B1F75C9A81E89C
:104A300080936400809165008160809365000E948E
:104A4000821687FF24C05C9885EA8EBD00000DB4F5
:104A500007FEFDCF5C9A2E982F982D9880916400C8
:104A600080628093640081E083BF889513BEFCCF91
:104A70002D980E9482168478843871F00E948216E4
:104A800084718431F9F088EC90E00E94CD150E9489
:104A9000821682FDEDCF2CC02D9A88EC90E00E940A
:104AA000CD152F986FEF82E090E00E948C1684EF76
:104AB00091E00E94CD152F9A0E9482168478843846
:104AC000D9F3DCCF2D9A88EC90E00E94CD152E987A
:104AD00060E082E090E00E948C1684EF91E00E94FA
:104AE000CD152E9A0E94821684718431D9F3CBCFD2
:104AF0002D9A0E942A1180E00E94B30A83E48093D9
:104B0000CA028FE68093CB028DE68093CC0280E7C9
:104B10008093CD0285E78093CE0284E78093CF0215
:104B200085E68093D00282E78093D1021092D20270
:104B300082E090E00E948A16882331F03E9A3F9AE4
:104B400081E08093E00204C01092E0023E983F981A
:104B50000E94B81F8823E1F30E947F1FE091940216
:104B60008E2F90E08830910510F00C94892FFC0175
:104B7000EA5AFF4F0C94F53410E0CC24C3940FE0B4
:104B8000B02E809194028111E3CF0E94B81F811151
:104B900006C065E070E080E090E00E94CF120E94C5
:104BA0007F1F80913A03809590913903892311F4F6
:104BB0000C94B53211110C94BB328EE690E00E9439
:104BC0009A1F8CE290E00E949A1F11E080913703B7
:104BD00080FD05C01F5F1D3711F4C092940220E0D4
:104BE00042E455E061E170E08FE290E00E94B91587
:104BF00020E044E255E06AE170E08BE290E00E9440
:104C0000B91520E044E255E06AE170E089E490E003
:104C10000E94B91520E0111112C044E255E06AE18A
:104C200070E08AE390E00E94B91520E044ED54E082
:104C30006EE270E08AE190E00E94B91528C046EB70
:104C400054E06AE170E08AE390E00E94B91520E048
:104C500043E954E06EE270E08CE290E00E94B91506
:104C6000812F6B2D0E94D5348370D82EBFE4EB2E9C
:104C7000F12C00E0D01659F041E061E370E0C7018B
:104C80000E94A0160F5F22E0E20EF11CF3CF81E03C
:104C90000E948B1F76CF83E0E5E9F2E0DF011D92F1
:104CA0008A95E9F7F12CB12CC12C00E0E12C67E0EA
:104CB000762E9924939470E1872EE4E3AE2EF3E0F0
:104CC0006F2EACE6DA2E80919402813009F040CF4D
:104CD0000E94B81F811106C064E170E080E090E09E
:104CE0000E94CF120E947F1F10913A03109580916D
:104CF000390318230E940B2020E04FE652E062E0C7
:104D000070E083E190E00E9461148091300288237A
:104D100021F0813009F458C0B2C0073310F40C946C
:104D2000BE3220E048E652E06AE270E083E290E0C2
:104D30000E94611420E048E652E06AE270E08AE5F1
:104D400090E00E9461140E3610F40C94BE3220E004
:104D500048E652E06AE270E08BE190E00E94611464
:104D600020E048E652E06AE270E082E690E00E94CD
:104D70006114053A10F40C94BE3220E048E652E08B
:104D80006AE270E083E190E00E94611420E048E66E
:104D900052E06AE270E08AE690E00E9461140F3A05
:104DA00011F00C94BE3220E044E252E064E370E083
:104DB00081E390E00E94611413FD9092300212FF93
:104DC0005EC0709294025BC08092180380921703B9
:104DD000A092190380E192E00E94F01F8091E3020B
:104DE000882359F0813099F4D0921803D092170398
:104DF000A09219038CE092E008C0D0921803D092E0
:104E00001703A09219038EE092E00E94F01F61E365
:104E100070E06C19710920E045E052E08BE690E00B
:104E20000E9461146B2D70E0645C7F4F20E04EEFB8
:104E300051E08BE690E00E94611413FD60929402B1
:104E400012FD1092300217FF0AC08091E302811117
:104E500006C09092E3024AE0F42E52E0C52E14FF01
:104E60000EC08091E302813051F41092E30210925F
:104E70003A03109239032AE0F22E32E0B32E0E9458
:104E8000ED1FFF2029F0FA94F11002C0B12CC12CC3
:104E90000E94821684FD02C0E12C15CFBFE0BE1532
:104EA00008F48CCDE3940FCF80E090E00C94852F34
:104EB0008091E302811102C081E001C082E0809311
:104EC000030181E0809302016DE971E082EB92E0E1
:104ED0000E94CF0967EA71E08BE992E00E94CF0956
:104EE00082EB92E090932F0280932E02EAE7BE2E8F
:104EF000F0E2AF2EA1E6FA2EB1E45B2E44244394F7
:104F000014E0312E0BE9802E02E0902E88E3682E0B
:104F1000712C9EE2292E80919402833009F018CEE4
:104F20000E94B81F811106C065E070E080E090E04B
:104F30000E94CF120E947F1F10913A03109580911A
:104F400039031823E0912E02F0912F02808115FF82
:104F500005C0882319F09FEF980F908316FF05C0B6
:104F60009081983010F49F5F908317FF1EC0DF017F
:104F7000A80FB11D11969C9111979A3571F034F4D8
:104F8000903281F07CF091345CF40CC0913654F096
:104F90009A3734F09A3701F105C01196FC9229C076
:104FA0009F5F22C011965C9224C014FF27C0DF01CE
:104FB000A80FB11D11969C9111979B353CF492342A
:104FC00094F49032A1F0913439F011C0913639F057
:104FD00074F09B3744F00BC01196AC920AC02AE5DE
:104FE00011962C9306C0915011969C9302C0119675
:104FF000BC9265897689CF010E94B00912FF15C065
:10500000E0910201E23078F0E150E0930201F0E03B
:10501000EE0FFF1FEE5DFE4F8081918190932F0276
:1050200080932E0202C04092940213FF23C080910D
:105030002E0290912F02FC0131960A9631E02191C7
:105040002F7D09F030E08E179F07C9F7311112C08C
:1050500080910201813061F48091E302813041F45A
:1050600082E08093020190922F0280922E0202C071
:10507000309294028091370390913803B3010E94DB
:10508000E13488AB0E94252120E040E851E065E052
:1050900070E081E290E00E94B9158DE280931803E0
:1050A000809317038EE18093190388E791E00E94B3
:1050B000F01F6091020170E080E090E04AE00E9401
:1050C00018200AE210E041E066E370E0C8010E94A7
:1050D000A0160E5F1F4F06351105A9F709E616E069
:1050E0006AE2E62EC12CD12CE0921803E09217035D
:1050F00020921903E0912E02F0912F0238A93D3140
:1051000028F090819C1511F40C94C132EC0DFD1D1A
:10511000618183E193E00E9452098FEFC81AD80A97
:1051200095E0E90E0B5F1F4FA7E5EA12DDCF81E0A6
:105130000E948B1FF0CE0CE13FE3E32E32E0F32E12
:1051400048E9C42E42E0D42E53E0B52E1FEF8091E3
:105150009402843009F0FCCCE2E1F2E0202F1192BD
:105160002A95E9F7A5EFB2E0E02F1D92EA95E9F75D
:105170001092E50210929302109211031092F40221
:10518000D701E02F1D92EA95E9F7D601EB2D1D928C
:10519000EA95E9F71092E4021093010110930E01D1
:1051A0001093070110930A0110930B01109304014F
:1051B00010930D0110930501109308011093120133
:1051C00010930C0110930601109309011093110123
:1051D00010930F01109310010E942A11A2E1B2E076
:1051E000E5EFF2E080E08D9311928F5F8C31D9F77B
:1051F0009EE2892E92E0992E2CE1422E512C612CB8
:10520000712C0E94BE33A30192010E943B34E62F11
:10521000F0E0EE5EFD4F8081D4019E914D019083C0
:105220008C93B1E04B1A510861087108E1E04E1609
:1052300051046104710429F7109211036091E30293
:10524000611103C09924939403C061E082E0982E19
:10525000D701E02F1D92EA95E9F7D601EB2D1D92BB
:10526000EA95E9F77BE1A62FB0E0A856BD4FAC90D8
:10527000FCE16F9FA001112480E090E09A01280FCB
:10528000391F215C3D4FE72FE81BF0E0EE5EFD4F3C
:105290008080F901808201968730910579F77750F7
:1052A00087E08A0D8C936F5F9616E8F670939302F1
:1052B0000E940B2021E04091E4026FEF80910301F6
:1052C0000E94701760910301662311F088E001C00D
:1052D00085E0809394028091E302811104C04FEF36
:1052E0000E94671434CF81E00E94D92330CF8FEF22
:1052F0008FA78EA71092E4021092F402809301010E
:10530000F3E02F2EA8E38A2EA2E09A2EB1E36B2EB3
:10531000B2E07B2E30909402F5E03F12D4C51982A2
:1053200010E080919802181708F006C28091E502FB
:105330008230F1F118F4813041F0FCC1833009F47E
:1053400079C0843009F448C1F5C1809110018F3FC4
:1053500061F49E01225D3F4FAE01415D5F4FBE0192
:105360006F5F7F4F812F0E94F811809110018F3F56
:1053700061F49E01225D3F4FAE01415D5F4FBE0172
:105380006F5F7F4F812F0E94F81180910F018F3F37
:1053900061F49E01225D3F4FAE01415D5F4FBE0152
:1053A0006F5F7F4F812F0E94B41180910F0132C037
:1053B000809110018F3F61F49E01225D3F4FAE014D
:1053C000415D5F4FBE016F5F7F4F812F0E94611172
:1053D000809110018F3F61F49E01225D3F4FAE012D
:1053E000415D5F4FBE016F5F7F4F812F0E94611152
:1053F000809111018F3F61F49E01225D3F4FAE010C
:10540000415D5F4FBE016F5F7F4F812F0E94B411DE
:10541000809111018F3F09F08DC19E01225D3F4FA8
:10542000AE01415D5F4FBE016F5F7F4F812F0E94D4
:10543000B41180C180910A018F3F09F453C080915B
:1054400009018F3F09F04EC080910B018F3F61F041
:105450009E01225D3F4FAE01415D5F4FBE016F5F18
:105460007F4F812F0E94F81130910B013F3F91F443
:105470002091100180910F01280F2150822F65E0AB
:105480000E94D534911106C08981821718F42983AE
:105490002EA61FA7809109018F3F21F53F3F61F0A4
:1054A0009E01225D3F4FAE01415D5F4FBE016F5FC8
:1054B0007F4F812F0E94F81180910B018F3FB9F42B
:1054C0002091100180910F01280F2150822F65E05B
:1054D0000E94D534911106C08981821718F429835E
:1054E0002EA61FA780910B018F3F09F44EC080911B
:1054F00011018F3F09F044C080910A018F3F61F094
:105500009E01225D3F4FAE01415D5F4FBE016F5F67
:105510007F4F812F0E94B41180910A018F3F61F467
:105520009E01225D3F4FAE01415D5F4FBE016F5F47
:105530007F4F812F0E944012809111018F3F01F512
:1055400080910A018F3F61F09E01225D3F4FAE01C5
:10555000415D5F4FBE016F5F7F4F812F0E94B4118D
:1055600080910A018F3F61F49E01225D3F4FAE01A1
:10557000415D5F4FBE016F5F7F4F812F0E944012E0
:1055800080910B018F3F09F0D5C080910A018F3FB8
:1055900009F0D0C0809110018F3F61F49E01225D1F
:1055A0003F4FAE01415D5F4FBE016F5F7F4F812F67
:1055B0000E944012809110018F3F09F0BBC09E01F4
:1055C000225D3F4FAE01415D5F4FBE016F5F7F4F78
:1055D000812F0E944012AEC0809109018F3F61F47B
:1055E0009E01225D3F4FAE01415D5F4FBE016F5F87
:1055F0007F4F812F0E94F811809109018F3F61F444
:105600009E01225D3F4FAE01415D5F4FBE016F5F66
:105610007F4F812F0E94F811809111018F3F61F41B
:105620009E01225D3F4FAE01415D5F4FBE016F5F46
:105630007F4F812F0E94B411809111018F3F61F43F
:105640009E01225D3F4FAE01415D5F4FBE016F5F26
:105650007F4F812F0E94B41180910E018F3F99F0EE
:1056600080910C018F3F61F49E01225D3F4FAE019E
:10567000415D5F4FBE016F5F7F4F812F0E9486119A
:1056800080910C0112C0809110018F3F61F49E0146
:10569000225D3F4FAE01415D5F4FBE016F5F7F4FA7
:1056A000812F0E948611809110018F3F61F49E012D
:1056B000225D3F4FAE01415D5F4FBE016F5F7F4F87
:1056C000812F0E948611809107018F3F99F0809170
:1056D00006018F3F61F49E01225D3F4FAE01415DA7
:1056E0005F4FBE016F5F7F4F812F0E9461118091DC
:1056F000060112C0809110018F3F61F49E01225D6E
:105700003F4FAE01415D5F4FBE016F5F7F4F812F05
:105710000E946111809110018F3F61F49E01225D12
:105720003F4FAE01415D5F4FBE016F5F7F4F812FE5
:105730000E9461111F5FF5CDEFA5EF3F09F0FBC29D
:10574000E98397E0D401E92F1D92EA95E9F7D301A7
:105750001D929A95E9F7AFE3B2E090E08917F9F06E
:10576000ED91F0E0EE59FE4F6081262F30E0E4E04D
:1057700035952795EA95E1F7A9014F5C5D4FFA0150
:1057800030813F5F3083E62FEF70E21731F0F0E0B9
:10579000EF5CFD4F20812F5F20839F5FDFCF309133
:1057A0001103A5EFB2E020E03217F9F0ED91F0E03F
:1057B000EE59FE4F6081862F90E074E095958795B5
:1057C0007A95E1F7AC01485C5D4FFA0190819F5FEB
:1057D0009083E62FEF70E81731F0F0E0E85CFD4FC2
:1057E00080818F5F80832F5FDFCF809104018F3FA7
:1057F00099F090910F01E92FF0E0E85CFD4F808176
:105800008F5F8083E09110019E1731F0F0E0E85C3B
:10581000FD4F80818F5F808380910E018F3F99F0D3
:1058200090910D01E92FF0E0E85CFD4F80818F5FE2
:105830008083E0910C019E1731F0F0E0E85CFD4FB1
:1058400080818F5F8083809107018F3F99F09091D5
:105850000501E92FF0E0E85CFD4F80818F5F8083D8
:10586000E09106019E1731F0F0E0E85CFD4F808189
:105870008F5F808380910A018F3F99F0909108019A
:10588000E92FF0E0E85CFD4F80818F5F8083E0913D
:1058900009019E1731F0F0E0E85CFD4F80818F5FD9
:1058A000808380910B018F3F99F090911201E92F35
:1058B000F0E0E85CFD4F80818F5F8083E091110113
:1058C0009E1731F0F0E0E85CFD4F80818F5F8083B0
:1058D000C12CE0919802CE1608F029C2EC2DF0E020
:1058E000E15CFD4FE081F0E0EE59FE4F8081A82E93
:1058F000B12C64E0B594A7946A95E1F74A2C8F70B7
:10590000D82E55245394A812512C8091E502823050
:1059100009F44FC028F4882351F0813089F005C282
:10592000833009F484C0843009F434C1FEC1DA0C38
:105930008981D81608F0F9C1D9821EA6CFA6F5C173
:105940008091100148120EC09E01225D3F4F7901E7
:105950008E01015D1F4F2D5231094D2D6C2D852D6E
:105960000E944B1B80911001D8120EC0CE018E9662
:105970007C018E01015D1F4F9E012F5F3F4F4A2D1D
:105980006C2D852D0E944B1B80910F0148120EC07B
:10599000DE019E967D018E01015D1F4F9E012F5FEE
:1059A0003F4F4D2D6C2D852D0E94B61B80910F0110
:1059B000E0C0009110011091110140120FC08D2D17
:1059C0000E94650D811103C08D2D810F01C080E003
:1059D0009981891718F489831EA6CFA6D0120FC00B
:1059E0008A2D0E94650D811103C0812F8A0D01C08F
:1059F00080E09981891718F489831EA6CFA64112E9
:105A00000EC09E01225D3F4F79018E01015D1F4F47
:105A10002D5231094D2D6C2D852D0E94B61B809184
:105A20001101D81282C1CE018E967C01A7C080914F
:105A30000A018F3FD1F08091090148120EC0DE01AA
:105A40009E967D018E01015D1F4F9E012F5F3F4F8E
:105A50004D2D6C2D852D0E944B1B80910901D81274
:105A600028C0FE01BE967F0119C080911001481226
:105A70000EC09E01225D3F4F79018E01015D1F4FD7
:105A80002D5231094D2D6C2D852D0E944B1B80917F
:105A90001001D8120EC0CE018E967C018E01015DE0
:105AA0001F4F9E012F5F3F4F4A2D6C2D852D0E9469
:105AB0004B1B80910B018F3FD1F080911101481257
:105AC0000EC0DE019E967D018E01015D1F4F9E017D
:105AD0002F5F3F4F4D2D6C2D852D0E94B61B809161
